:020000040800F2
:10000000000002206D290008DF230008E12300081A
:10001000E3230008E5230008E723000800000000B0
:10002000000000000000000000000000E9230008BC
:10003000EB23000800000000ED230008EF23000878
:10004000BD290008BD290008BD290008BD290008F8
:10005000BD290008BD290008BD290008BD290008E8
:10006000BD290008BD290008BD290008BD290008D8
:10007000BD290008BD290008BD290008BD290008C8
:10008000BD290008BD290008BD290008BD290008B8
:10009000BD290008BD290008BD290008BD290008A8
:1000A000BD290008BD290008BD290008BD29000898
:1000B000BD290008BD290008BD290008BD29000888
:1000C000BD290008BD290008BD290008BD29000878
:1000D000BD290008BD290008BD290008BD29000868
:1000E000F7230008BD290008BD290008BD29000824
:1000F000BD290008BD290008BD290008BD29000848
:10010000BD290008BD290008BD290008BD29000837
:10011000BD290008BD290008BD290008BD29000827
:10012000BD290008BD290008BD290008BD29000817
:10013000BD290008BD290008BD290008BD29000807
:10014000BD290008BD290008BD290008BD290008F7
:10015000BD290008BD290008BD290008BD290008E7
:10016000BD290008BD290008BD290008BD290008D7
:10017000BD290008BD290008BD290008BD290008C7
:10018000BD290008BD290008BD290008BD290008B7
:10019000BD29000800000000BD290008BD29000895
:1001A000BD290008BD290008BD290008BD29000897
:1001B000BD290008BD290008BD290008BD29000887
:1001C000BD290008BD290008BD290008BD29000877
:0801D000BD290008BD2900084B
:1001E00001F0FF01102A2BDB10F0070F08D010F8E8
:1001F000013B013A8B422DD010F0070F42B3F6D1EC
:10020000F0B441EA012141EA014122F007047FF004
:1002100000070023F0E80256083C85EA010586EA5B
:10022000010685FA47F5A3FA87F586FA47F6A5FA97
:1002300087F68EB9EED1F0BC01F0FF0102F00702A3
:1002400032B110F8013B013A83EA010313B1F8D14E
:100250000020704701387047002D06BF354603382F
:10026000073815F0010F07D1013015F4807F02BF68
:10027000013015F4C03F0130F0BC0138704700BFB9
:1002800053B94AB9002908BF00281CBF4FF0FF31FD
:100290004FF0FF3000F00CB8ADF1080C6DE904CE62
:1002A00003F0B8FADDF804E0DDE9022304B070479A
:1002B000704700BF10B5054C237833B9044B13B118
:1002C0000448AFF300800123237010BD68000020B4
:1002D000000000000C3B000808B5034B1BB10349AC
:1002E0000348AFF3008008BD000000006C00002050
:1002F0000C3B0008104B1B680BB90120704710B570
:1003000004464FF47A70B0FBF3F30C4A1068B0FB6C
:10031000F3F000F0B5F868B90F2C01D901200AE01C
:10032000002221464FF0FF3000F096F8044B1C608D
:10033000002000E0012010BD000000200800002087
:100340000400002010B5032000F074F80020FFF72F
:10035000D1FF10B10124204610BD044600F0EAFD93
:10036000F9E70000034A1368034909680B44136066
:10037000704700BF8400002000000020014B186877
:10038000704700BF8400002038B50446FFF7F6FF31
:100390000546B4F1FF3F02D0044B1B681C44FFF735
:1003A000EDFF401BA042FAD338BD00BF0000002083
:1003B000002807DB00F01F02400901239340024A96
:1003C00042F82030704700BF00E100E0002808DB61
:1003D0000901C9B200F1604000F5614080F80013E6
:1003E000704700F00F000901C9B2014B1954704762
:1003F00014ED00E000B500F00700C0F1070CBCF1FF
:10040000040F28BF4FF0040C031D062B0FD9C31E89
:100410004FF0FF3E0EFA0CF021EA000199400EFA6F
:1004200003FE22EA0E0241EA02005DF804FB00230B
:10043000EEE70000074AD36823F4E0631B041B0CBB
:10044000000200F4E060034343F0BF6343F4003371
:10045000D360704700ED00E010B50446054BD86846
:10046000C0F30220FFF7C6FF01462046FFF7AEFFAC
:1004700010BD00BF00ED00E008B5FFF799FF08BD13
:100480000138B0F1807F0BD24FF0E0235861054A6C
:10049000F02182F823100020986107221A6170472A
:1004A0000120704700ED00E011B942600846704736
:1004B000002343600120704710B1016000207047A5
:1004C0000120704710B50368C3F3004203F01F0317
:1004D000012199405301044A9C580C4203D0995081
:1004E000436803B1984710BD14040140F0B583B0D0
:1004F000002362E085685E000324B44025EA040519
:10050000CC68B4402C438460456825EA0C054C68EF
:10051000C4F300149C402C4344605FE0DD080835C0
:1005200050F8254003F0070C4FEA8C0C4FF00F0EEB
:100530000EFA0CFE24EA0E0E0C6904FA0CF444EADE
:100540000E0440F8254060E0052400E0002404FA91
:100550000EF42C430CF1020C554D45F82C40554C33
:10056000A568D44325EA02064F6817F4801F01D01E
:1005700042EA05064F4DAE60ED6804EA05064F6895
:1005800017F4001F01D042EA05064A4DEE606D687F
:1005900004EA05064F6817F4003F01D042EA050659
:1005A000444D6E602D682C404E6816F4803F01D09B
:1005B00042EA05043F4A146001330A6832FA03F440
:1005C00074D04FF0010C0CFA03FC1CEA0202F3D0C9
:1005D0004C6804F00304013C012C8BD94C6804F0F6
:1005E0000304032C0CD0C4685D004FF0030C0CFA1C
:1005F00005FC24EA0C0C8C68AC4044EA0C04C46092
:100600004C6804F00304022C88D004684FEA430EBF
:100610004FF0030C0CFA0EFC24EA0C0C4C6804F0AE
:10062000030404FA0EF444EA0C0404604C6814F465
:10063000403FC1D0204C256E45F001052566246E53
:1006400004F001040194019C4FEA930C0CF10205A3
:10065000174C54F8255003F0030E4FEA8E0E0F246A
:1006600004FA0EF425EA0405B0F1904F3FF46EAFA2
:10067000124CA04212D004F58064A04210D004F5C0
:100680008064A0420ED004F58064A0420CD004F532
:100690008064A0423FF458AF062458E7012456E78F
:1006A000022454E7032452E7042450E703B0F0BDCA
:1006B0000000014000040140001002400004004816
:1006C0000AB1816170478162704703689A6912F0CC
:1006D000020F01D000229A6203689A6912F0010F9A
:1006E00003D19A6942F001029A61704710B4019CEB
:1006F000C1F3090141EA02411943214321F00041BC
:1007000002685368640D04F4806444F07F7444F418
:10071000583444F47F7444F0030423EA04030B4385
:1007200053605DF8044B70472DE9F04104460368BF
:100730009E6916F010067CD00D4690461022DA61B4
:10074000002637462368986910F0200F30D17FBB10
:10075000B5F1FF3FF6D0FFF711FEA0EB0800A8426D
:1007600001D8002DEED121684B6803F4804394F842
:100770004220D2B2886910F4004F02D00BB9202A6F
:100780000ED123689B6913F0200FDBD1FFF7F6FD34
:10079000A0EB08001928F4D946F020060127D1E77C
:1007A0004B6843F480434B60FFF7E8FD8046E8E781
:1007B0000FB92022DA6146F0040601252268936908
:1007C00013F4807F05D046F001064FF48071D161AB
:1007D000012513F4806F06D046F0080622684FF416
:1007E0008061D161012513F4007F24D046F0020618
:1007F00023684FF40072DA6101252046FFF765FF98
:100800002268536823F0FF7323F48B3323F4FF73C0
:1008100023F001035360636C33436364202384F843
:100820004130002384F8423084F840302846BDE847
:10083000F0810025C2E7002DF8D0DEE770B5044650
:100840000D46164623689B6913F0020F22D13246EB
:1008500029462046FFF768FFF0B9B5F1FF3FF1D018
:10086000FFF78CFD801BA84201D8002DEAD1236838
:100870009B6913F0020FE5D1636C43F020036364BE
:10088000202384F84130002384F8423084F840303B
:10089000012000E0002070BD0120FCE72DE9F843B5
:1008A0000546884617461E46DDF820902B689C6951
:1008B00038EA04040CBF01230023BB4227D14A4677
:1008C00031462846FFF730FF20BBB6F1FF3FEDD0A1
:1008D000FFF754FDA0EB0900B04201D8002EE5D18E
:1008E0002B689B6938EA03030CBF01230023BB423A
:1008F000DCD16B6C43F020036B64202385F841301E
:10090000002385F8423085F84030012000E00020C7
:10091000BDE8F8830120FBE72DE9F04182B00446F1
:1009200090461D46089E099F194B00934FF0807317
:10093000EAB2FFF7DBFE3A4631462046FFF77EFF7C
:10094000F8B9012D0ED123685FFA88F29A620097F8
:100950003346002280212046FFF7A0FFA8B902B04D
:10096000BDE8F08123684FEA18229A623A46314680
:100970002046FFF763FF30B923685FFA88F29A6276
:10098000E5E70120EBE70120E9E70120E7E700BF09
:10099000002000802DE9F04182B0044690461D46BB
:1009A000089E099F184B00930023EAB2FFF79EFEB2
:1009B0003A4631462046FFF741FFF8B9012D0ED1E6
:1009C00023685FFA88F29A6200973346002240213A
:1009D0002046FFF763FFA8B902B0BDE8F0812368A5
:1009E0004FEA18229A623A4631462046FFF726FF20
:1009F00030B923685FFA88F29A62E5E70120EBE7F5
:100A00000120E9E70120E7E70020008070B50446F7
:100A10000D46164604E023689B6913F0200F12D0A0
:100A200023689B6913F0200F1BD1324629462046CC
:100A3000FFF77AFEB8B9FFF7A1FC801BA842EAD8FD
:100A4000002DEDD1E7E7636C43F0200363642023BE
:100A500084F84130002384F8423084F8403001208B
:100A600000E0002070BD0120FCE700285FD010B539
:100A7000044690F84130002B48D0242384F84130BC
:100A80002268136823F0010313606368226823F06F
:100A9000706313612268936823F400439360E368F2
:100AA000012B38D0A368226843F404439360E368C1
:100AB000022B36D02268536823F400635360226807
:100AC000536843F0007343F4004353602268D368D3
:100AD00023F40043D360236962691343A169226848
:100AE00043EA0123D360E369216A22680B43136060
:100AF0002268136843F00103136000206064202320
:100B000084F84130206384F8420010BD80F8403002
:100B100000F02CFAB1E7A368226843F40043936025
:100B2000C5E72268536843F400635360C7E70120B8
:100B300070472DE9F04F83B00E46BDF834A00E9DEE
:100B400090F84110202940F0BB8004469146984619
:100B50000C9BCBB1BAF1000F16D090F84030012BAE
:100B600000F0B2804FF0010B80F840B0FFF706FCB8
:100B70000746009019235A464FF400412046FFF7DC
:100B80008DFE30B101209CE04FF4007363640120BE
:100B900097E0212384F84130402384F84230002339
:100BA00063640C9A6262A4F82AA0636301970095BB
:100BB00043464A4631462046FFF7AEFE70B9638D84
:100BC0009BB2FF2B0FD9FF222285002300934FF009
:100BD000807331462046FFF789FD21E0002384F829
:100BE000403058466DE0628D92B22285002300931A
:100BF0004FF00073D2B231462046FFF777FD0FE089
:100C0000628D92B22285002300934FF00073D2B21E
:100C100031462046FFF76AFD638D9BB2002B33D02F
:100C20003A4629462046FFF709FE00284ED1626A5F
:100C3000236812789A62636A01336362638D9BB2A0
:100C4000013B9BB26385238D013B9BB22385628D63
:100C500092B2002AE0D0002BDED100972B46002272
:100C600080212046FFF71AFE90BB638D9BB2FF2BBD
:100C7000C6D9FF222285002300934FF080733146AE
:100C80002046FFF733FDC7E73A4629462046FFF7DF
:100C9000BDFEF8B923682022DA6121684B6823F091
:100CA000FF7323F48B3323F4FF7323F001034B60B2
:100CB00084F84120002384F8423084F8403000E07A
:100CC000022003B0BDE8F08F0220FAE70120F8E728
:100CD0000120F6E70120F4E72DE9F04F83B00E463E
:100CE000BDF834A00E9D90F84110202940F0BC8042
:100CF0000446914698460C9BCBB1BAF1000F16D032
:100D000090F84030012B00F0B3804FF0010B80F8D9
:100D100040B0FFF733FB0746009019235A464FF4C3
:100D200000412046FFF7BAFD30B101209DE04FF4AD
:100D300000736364012098E0222384F8413040234B
:100D400084F84230002363640C9A6262A4F82AA0FB
:100D500063630197009543464A4631462046FFF7B4
:100D600019FE70B9638D9BB2FF2B0FD9FF2222852C
:100D7000434B00934FF0807331462046FFF7B6FC9B
:100D800021E0002384F8403058466EE0628D92B234
:100D900022853B4B00934FF00073D2B23146204680
:100DA000FFF7A4FC0FE0628D92B22285002300932E
:100DB0004FF00073D2B231462046FFF797FC638DA7
:100DC0009BB2002B34D000972B46002204212046F2
:100DD000FFF764FD00284DD123685A6A636A1A70D0
:100DE000636A01336362228D013A92B22285638D78
:100DF0009BB2013B9BB26385638D9BB2002BDED01F
:100E0000002ADCD100972B4680212046FFF746FDC3
:100E100090BB638D9BB2FF2BC5D9FF222285002397
:100E200000934FF0807331462046FFF75FFCC6E722
:100E30003A4629462046FFF7E9FDF8B92368202203
:100E4000DA6121684B6823F0FF7323F48B3323F4BA
:100E5000FF7323F001034B6084F84120002384F8E2
:100E6000423084F8403000E0022003B0BDE8F08F4B
:100E70000220FAE70120F8E70120F6E70120F4E775
:100E800000240080034690F84120202A23D190F8C6
:100E90004020012A21D0012280F84020242280F81D
:100EA00041200068026822F00102026018680268AE
:100EB00022F480520260186802680A4302601968CE
:100EC0000A6842F001020A60202283F841200020D3
:100ED00083F84000704702207047022070470346A5
:100EE00090F84120202A21D190F84020012A1FD0DB
:100EF000012280F84020242280F841200068026806
:100F000022F0010202601868026822F4706242EA6C
:100F10000122026019680A6842F001020A60202278
:100F200083F84120002083F840007047022070477A
:100F30000220704700B583B00B4B1A6E42F00102DD
:100F40001A661A6E02F001020092009A9A6D42F03F
:100F500080529A659B6D03F080530193019B00F0D2
:100F6000D1F803B05DF804FB0010024010B59CB04E
:100F7000044600211791189119911A911B9154223E
:100F800002A801F037FE2268184B9A4201D01CB02B
:100F900010BD4023029302A800F0C4FC10BB144C07
:100FA000E36C43F00203E364E36C03F00203009399
:100FB000009B4FF440731793122318930123199346
:100FC00003231A9304231B9317A90A48FFF78EFAE9
:100FD000A36D43F40013A365A36D03F40013019301
:100FE000019BD4E701F08CFBD9E700BF005400401F
:100FF0000010024000040048002836D13E4B1B6818
:1010000003F4C063B3F5806F08D03B4AD2F8803058
:1010100023F48073C2F8803000207047364AD2F83B
:10102000803023F48073C2F88030136823F4C063E7
:1010300043F400731360314B1B68322202FB03F34D
:101040002F4AA2FB03239B0C013300E0013B2A4AF9
:10105000526912F4806F01D0002BF7D1264B5B69E7
:1010600013F4806F44D100207047B0F5007F08D0A2
:10107000214A136823F4C06343F4806313600020A3
:1010800070471D4B1B6803F4C063B3F5806F08D035
:10109000194AD2F8803043F48073C2F880300020BF
:1010A0007047154AD2F8803043F48073C2F880301C
:1010B000136823F4C06343F4007313600F4B1B6881
:1010C000322202FB03F30E4AA2FB03239B0C0133E3
:1010D00000E0013B084A526912F4806F01D0002BF6
:1010E000F7D1054B5B6913F4806F03D10020704783
:1010F0000320704703207047007000400800002064
:1011000083DE1B43024A936843F480439360704735
:1011100000700040124BDA6802F00302DB68C3F390
:1011200003130133032A11D00E48B0FBF3F00C4B2C
:10113000DB68C3F3062303FB00F0094BDB68C3F352
:10114000416301335B00B0FBF3F070470648B0FB2E
:10115000F3F0034BDB68C3F3062303FB00F0ECE77B
:10116000001002400024F40000366E01002800F058
:101170004F8270B582B00446036813F0010F37D078
:10118000A44A936803F00C03D26802F003020C2B0C
:1011900023D0082B23D06368B3F5803F4ED0B3F53E
:1011A000A02F51D09B4B1A6822F480321A601A6823
:1011B00022F480221A606368002B52D0FFF7DEF819
:1011C0000546944B1B6813F4003F11D1FFF7D6F886
:1011D000401B6428F5D9032023E2032AD9D18D4B83
:1011E0001B6813F4003F03D06368002B00F01282E9
:1011F000236813F0020F5DD0864A936803F00C0356
:10120000D26802F003020C2B3AD0042B3AD0E368E8
:10121000002B75D07F4A136843F480731360FFF787
:10122000ADF805467B4B1B6813F4806F5FD1FFF769
:10123000A5F8401B0228F5D90320F2E1754A13688E
:1012400043F480331360B6E703F18043A3F53C33E6
:101250001A6842F480221A601A6842F480321A60D6
:10126000A9E7FFF78BF805466A4B1B6813F4003FAC
:10127000BED0FFF783F8401B6428F5D90320D0E1E6
:10128000022AC2D1634B1B6813F4806F03D0E3685A
:10129000002B00F0C1815F4A536823F0FE432169AF
:1012A00043EA016353605C4B1868FFF723F800289A
:1012B00040F0B481236813F0080F4CD063699BB3EE
:1012C000544AD2F8943043F00103C2F89430FFF747
:1012D00055F805464F4BD3F8943013F0020F3AD12E
:1012E000FFF74CF8401B0228F4D9032099E1494A42
:1012F000536823F0FE43216943EA01635360D9E751
:10130000444A136823F480731360FFF737F80546E7
:10131000404B1B6813F4806FCCD0FFF72FF8401BB5
:101320000228F5D903207CE13A4AD2F8943023F020
:101330000103C2F89430FFF721F80546354BD3F886
:10134000943013F0020F06D0FFF718F8401B022864
:10135000F4D9032065E1236813F0040F00F08180C5
:101360002C4B9B6D13F0805F36D12A4B9A6D42F067
:1013700080529A659B6D03F080530193019B012578
:10138000264B1B6813F4807F28D0A368012B39D02B
:10139000052B45D01F4BD3F8902022F00102C3F853
:1013A0009020D3F8902022F00402C3F89020A36884
:1013B000002B43D0FEF7E2FF0646164BD3F89030E1
:1013C00013F0020F4CD1FEF7D9FF801B41F2883396
:1013D0009842F2D9032024E10025D1E70F4A13688F
:1013E00043F480731360FEF7C9FF06460B4B1B687E
:1013F00013F4807FC9D1FEF7C1FF801B0228F5D905
:1014000003200EE1034AD2F8903043F00103C2F802
:101410009030CCE700100240040000200070004033
:10142000884BD3F8902042F00402C3F89020D3F800
:10143000902042F00102C3F89020B8E7FEF79EFF2B
:101440000646804BD3F8903013F0020F08D0FEF719
:1014500095FF801B41F288339842F2D90320E0E0E7
:10146000E5B9236813F0200F35D0A369E3B1754ABD
:10147000D2F8983043F00103C2F89830FEF77EFFAF
:101480000546704BD3F8983013F0020F23D1FEF7C6
:1014900075FF401B0228F4D90320C2E0694A936D0E
:1014A00023F080539365DCE7664AD2F8983023F046
:1014B0000103C2F89830FEF761FF0546614BD3F88F
:1014C000983013F0020F06D0FEF758FF401B022899
:1014D000F4D90320A5E0E369002B00F0A180594A6C
:1014E000926802F00C020C2A64D0022B13D0554AE9
:1014F000136823F080731360FEF740FF0446514BDE
:101500001B6813F0007F4ED0FEF738FF001B022847
:10151000F5D9032085E04B4A136823F080731360EC
:10152000FEF72CFF0546474B1B6813F0007F06D0E3
:10153000FEF724FF401B0228F5D9032071E0414A41
:10154000D36841491940236A606A013843EA0013AD
:10155000A06A43EA0023206B4008013843EA405365
:10156000606B4008013843EA4063E06A43EAC063C5
:101570001943D160136843F080731360D36843F05C
:101580008073D360FEF7FAFE04462E4B1B6813F0FF
:10159000007F06D1FEF7F2FE001B0228F5D90320DA
:1015A0003FE000203DE0274AD168284B0B40D36044
:1015B000002036E0012B36D0224BDB6803F003011C
:1015C000226A914231D103F0F002616A0139B2EB33
:1015D000011F2CD103F4FE42A16AB2EB012F28D1E6
:1015E00003F07842E16AB2EBC16F24D103F4C00189
:1015F000226B5208013AB1EB425F1ED103F0C06387
:10160000626B5208013AB3EB426F18D1002008E038
:1016100001207047012004E0012002E0012000E0E9
:10162000002002B070BD0120FBE70120F9E7012096
:10163000F7E70120F5E70120F3E70120F1E70120BA
:10164000EFE700BF001002400C809F01FCFFEEFEA0
:101650001E4B9B6803F00C03042B33D01B4B9B6881
:1016600003F00C03082B2FD0184B9B6803F00C03DE
:101670000C2B01D000207047144BDA6802F00302F3
:10168000DB68C3F303130133032A11D01048B0FB06
:10169000F3F00E4BDB68C3F3062303FB00F00B4BA8
:1016A000DB68C3F3416301335B00B0FBF3F07047C9
:1016B0000848B0FBF3F0054BDB68C3F3062303FBDC
:1016C00000F0ECE702487047024870470010024003
:1016D0000024F40000366E01002800F0E680F8B522
:1016E0000C460546744B1B6803F00F038B420BD26C
:1016F000714A136823F00F030B431360136803F060
:101700000F038B4240F0D3802E6816F001065FD0A5
:101710006B68032B2FD0022B4DD0684B1B6813F442
:10172000806F00F0C680FFF793FF654B98424DD95C
:10173000624A936823F0F00343F0800393608026AD
:101740005E4A936823F0030369680B439360FEF7D6
:1017500015FE0746594B9B6803F00C036A68B3EB10
:10176000820F35D0FEF70AFEC01B41F28833984243
:10177000F0D9032078E0514B1B6813F0007F01D1B2
:10178000012071E0FFF7C6FC4D4B98421AD94B4B34
:101790009B6813F0F00F05D02E6816F00206CFD02C
:1017A000AB688BB9454A936823F0F00343F080039C
:1017B00093608026C4E7414B1B6813F4003FB2D10D
:1017C000012051E00026BBE70026B9E70026B7E775
:1017D0002B6813F0020F48D013F0040F04D0374ADF
:1017E000936843F4E06393602B6813F0080F06D00E
:1017F000324A936823F47C5343F4E06393602F4AA6
:10180000936823F0F003A9680B4393602A4B1B688D
:1018100003F00F03A34230D82B6813F0040F06D057
:10182000264A936823F4E063E9680B4393602B68CE
:1018300013F0080F07D0214A936823F460532969F5
:1018400043EAC1039360FFF703FF1C4B9B68C3F39C
:1018500003131C4AD35C03F01F03D8401A4B1860D3
:101860001A4B1868FEF746FDF8BD802ECED1134AFC
:10187000936823F0F0039360C8E70F4A136823F0DE
:101880000F0323431360FEF779FD06460A4B1B68DE
:1018900003F00F03A342BFD0FEF770FD801B41F29F
:1018A00088339842F2D90320DEE7012070470120F7
:1018B000DAE70120D8E700BF002002400010024014
:1018C00000B4C4046C3B00080800002004000020A1
:1018D000014B1868704700BF0800002008B5FFF7EB
:1018E000F7FF054B9B68C3F30223044AD35C03F064
:1018F0001F03D84008BD00BF00100240643B000831
:1019000008B5FFF7E5FF054B9B68C3F3C223044A04
:10191000D35C03F01F03D84008BD00BF0010024095
:10192000643B0008F0B583B00446036813F4002F4D
:101930006ED0354B9B6D13F0805F1ED1324B9A6D8C
:1019400042F080529A659B6D03F080530193019B96
:1019500001262E4A136843F480731360FEF70EFDD0
:1019600005462A4B1B6813F4807F08D1FEF706FD5D
:10197000401B0228F5D9032502E00026E9E70025EF
:1019800045BB214BD3F8903013F4407318D0226D2F
:101990009A4212D01C4AD2F8903023F44073D2F805
:1019A000901041F48031C2F89010D2F8901021F4D8
:1019B0008031C2F89010C2F8903013F0010F10D1AE
:1019C00045B9114AD2F8903023F44073216D0B438E
:1019D000C2F89030EEB10C4A936D23F080539365BA
:1019E00017E0FEF7CBFC0746074BD3F8903013F017
:1019F000020FE5D1FEF7C2FCC01B41F288339842CA
:101A0000F2D90325DCE700BF00100240007000405F
:101A10000025236813F0010F08D09F4AD2F88830C0
:101A200023F0030361680B43C2F88830236813F086
:101A3000020F08D0984AD2F8883023F00C03A1682E
:101A40000B43C2F88830236813F0040F08D0924A81
:101A5000D2F8883023F03003E1680B43C2F88830B5
:101A6000236813F0080F08D08B4AD2F8883023F08F
:101A7000C00321690B43C2F88830236813F0100FAC
:101A800008D0854AD2F8883023F4407361690B434B
:101A9000C2F88830236813F0200F08D07E4AD2F8AD
:101AA000883023F44063A1690B43C2F8883023686F
:101AB00013F0400F08D0784AD2F8883023F440530E
:101AC000E1690B43C2F88830236813F0800F08D017
:101AD000714AD2F8883023F44043216A0B43C2F89C
:101AE0008830236813F4807F08D06B4AD2F888309E
:101AF00023F44033616A0B43C2F88830236813F43F
:101B0000003F08D0644AD2F89C3023F00303A16A56
:101B10000B43C2F89C30236813F4007F08D05E4A60
:101B2000D2F8883023F44023E16A0B43C2F88830AE
:101B3000236813F4806F0CD0574AD2F8883023F40E
:101B40004013216B0B43C2F88830236BB3F5801F21
:101B500079D0236813F4006F0CD04F4AD2F8883044
:101B600023F44003616B0B43C2F88830636BB3F519
:101B7000800F6DD0236813F4805F0CD0464AD2F8F2
:101B8000883023F04073A16B0B43C2F88830A36BFD
:101B9000B3F1807F61D0236813F4005F0CD03E4A1C
:101BA000D2F8883023F04063E16B0B43C2F88830F1
:101BB000E36BB3F1006F55D0236813F4804F0CD062
:101BC000354AD2F8883023F04063216C0B43C2F8C9
:101BD0008830236CB3F1006F49D0236813F4004FB1
:101BE0000CD02D4AD2F8883023F04053616C0B435F
:101BF000C2F88830636CB3F1805F3DD0236813F482
:101C0000803F0CD0244AD2F8883023F04043A16CA6
:101C10000B43C2F88830A36CB3F1804F31D02368F6
:101C200013F4802F0CD01C4AD2F89C3023F44013BC
:101C3000E16C0B43C2F89C30E36CB3F5001F25D078
:101C4000284603B0F0BDD36843F48013D36080E727
:101C5000D36843F48013D3608CE7D36843F48013D4
:101C6000D36098E7D36843F48013D360A4E7D368C4
:101C700043F48013D360B0E7D36843F48033D36078
:101C8000BCE7D36843F48033D360C8E7D36843F438
:101C90008013D360D4E700BF00100240026852E80E
:101CA000003F23F4907342E800310029F6D1026826
:101CB00002F1080353E8003F23F0805323F00103AF
:101CC000083242E800310029F1D1C36E012B06D061
:101CD0002023C0F88C300023C36643677047026836
:101CE00052E8003F23F0100342E800310029F6D10A
:101CF000EEE7704770B50446836802691343426992
:101D00001343C269134301680868954A02401A43A5
:101D10000A602268536823F44053E1680B43536020
:101D2000A16922688F4B9A4201D0236A19439368B4
:101D300023F06E4323F430630B4393602268D36A2D
:101D400023F00F03616A0B43D3622368864A9342F0
:101D500010D0864A934221D0854A93424DD0854A7D
:101D600093425DD0844A93426CD07E4A93427ED0A7
:101D700010222BE002F55842D2F8882002F003022C
:101D8000032A09D8DFE802F00204880601221DE0D8
:101D900004221BE0082219E0102217E002F5E632C7
:101DA000D2F8882002F00C020C2A0ED8DFE802F0EC
:101DB000070D0D0D090D0D0D760D0D0D0B000022FB
:101DC00004E0042202E0082200E0102265498B4270
:101DD00000F08680E069B0F5004F00F0D580082A59
:101DE00000F23581DFE812F003011C01010133012B
:101DF0001F01330133013301220102F5E432D2F82D
:101E0000882002F03002202A4AD005D8002A49D082
:101E1000102A49D10422D9E7302A47D10822D5E730
:101E200002F5E232D2F8882002F0C002802A3FD0C8
:101E300004D8FAB3402A3FD10422C7E7C02A3DD1D3
:101E40000822C3E702F5E032D2F8882002F440729B
:101E5000B2F5007F34D005D8A2B3B2F5807F33D17C
:101E60000422B3E7B2F5407F30D10822AEE702F595
:101E7000C832D2F8882002F44062B2F5006F27D051
:101E800005D83AB3B2F5806F26D104229EE7B2F5A9
:101E9000406F23D1082299E7022297E7022295E7B3
:101EA000022293E7002291E710228FE710228DE7AC
:101EB00002228BE7002289E7102287E7102285E7BC
:101EC000022283E7002281E710227FE710227DE7CC
:101ED00002227BE7002279E7102277E7102275E7DC
:101EE000082A00F2A680DFE802F008A410A40DA4DE
:101EF000A4A405004FF4004008E0FFF7EFFC28B968
:101F00000020A5E0FFF7A4FBF9E71C48626A1C4B20
:101F100033F81220B0FBF2F3656805EB45019942F6
:101F200000F28980B3EB053F00F28780002633463C
:101F30003146FEF7A5F9090241EA106100026B087B
:101F4000C0182A46334641F10001FEF799F9A0F581
:101F500040720C4B9A4272D82368D860304677E0C2
:101F6000F369FFCF0080004000380140004400408A
:101F700000480040004C0040005000400024F400A5
:101F80004C3B0008FFFC0F00082A5AD8DFE802F09B
:101F9000072705592A5959590B00344803E0FFF720
:101FA0009DFC00284FD0626A314B33F81230B0FBF1
:101FB000F3F06268530803EB4003B3FBF2F3A3F1C1
:101FC00010014FF6EF7291423FD89AB222F00F0201
:101FD000C3F3420313432268D360002038E0FFF7C5
:101FE0008FFCDEE7FFF734FBDBE7204802E0FFF77A
:101FF00075FCB0B3626A1E4B33F81230B0FBF3F0DD
:10200000636800EB5300B0FBF3F0A0F110024FF651
:10201000EF739A4227D8236880B2D860002017E077
:10202000FFF76EFCE5E7FFF713FBE2E74FF4004034
:10203000E0E701200CE001200AE0012008E0012097
:1020400006E0012004E0002002E0012000E0012081
:102050000123A4F86A30A4F8683000236367A367FB
:1020600070BD0020F4E70120F2E700BF0024F40077
:102070004C3B0008836A13F0080F06D002685368CF
:1020800023F40043816B0B435360836A13F0010F09
:1020900006D00268536823F40033C16A0B435360CF
:1020A000836A13F0020F06D00268536823F480336A
:1020B000016B0B435360836A13F0040F06D0026870
:1020C000536823F48023416B0B435360836A13F0FE
:1020D000100F06D00268936823F48053C16B0B4342
:1020E0009360836A13F0200F06D00268936823F48C
:1020F0000053016C0B439360836A13F0400F0AD0C6
:102100000268536823F48013416C0B435360436CA3
:10211000B3F5801F0BD0836A13F0800F06D00268DE
:10212000536823F40023C16C0B435360704702686B
:10213000536823F4C003816C0B435360EBE72DE934
:10214000F84305460E4617469946DDF820802B6871
:10215000DC6936EA04040CBF01240024BC4236D1F9
:10216000B8F1FF3FF3D0FEF709F9A0EB09004045B5
:1021700030D8B8F1000F2FD02B681A6812F0040F76
:10218000E5D0802EE3D0402EE1D0DA6912F0080FBE
:1021900011D1DA6912F4006FD9D04FF400621A62DB
:1021A0002846FFF77BFD2023C5F89030002385F8F3
:1021B000843003200CE008241C622846FFF76EFDE3
:1021C000C5F89040002385F88430012000E000200D
:1021D000BDE8F8830320FBE70320F9E72DE9F04190
:1021E00082B01E46D0F88830202B5AD104460D46C6
:1021F0009046002959D00AB9012053E00023C0F8C5
:1022000090302123C0F88830FEF7B8F80746A4F8CC
:102210005480A4F85680A368B3F5805F02D04FF0D5
:10222000000816E0236943B34FF0000811E02023B3
:10223000C4F88830032035E038F8023B2268C3F345
:1022400008039362B4F8562092B2013A92B2A4F80D
:102250005620B4F856309BB293B100963B4600220C
:1022600080212046FFF76BFF0028E0D1002DE3D04E
:1022700015F8012B23689A62E4E7A8460025E8E7F1
:1022800000963B46002240212046FFF758FF18B930
:102290002023C4F8883005E02023C4F888300320C8
:1022A00000E0022002B0BDE8F0810120FAE730B57D
:1022B00083B004460023C0F89030FEF75FF805466F
:1022C0002268126812F0080F10D123681B6813F0FF
:1022D000040F28D12023C4F88830C4F88C300020A3
:1022E000E066206784F8840003B030BD6FF07E4361
:1022F0000093034600224FF400112046FFF71FFF12
:102300000028E2D0226852E8003F23F0800342E830
:1023100000310029F6D12023C4F88830002384F846
:1023200084300320E0E76FF07E4300932B460022C9
:102330004FF480012046FFF702FF0028CAD0226830
:1023400052E8003F23F4907342E800310029F6D1AF
:10235000226802F1080353E8003F23F0010308322A
:1023600042E800310029F3D12023C4F88C30002347
:1023700084F884300320B7E778B310B50446D0F86A
:1023800088300BB32423C4F888302268136823F004
:1023900001031360A36AE3B92046FFF7ABFC0128F1
:1023A00011D02268536823F49043536022689368E5
:1023B00023F02A0393602268136843F0010313603B
:1023C0002046FFF774FF10BD80F88430FFF791FCC2
:1023D000D8E72046FFF74EFEDEE701207047FEE714
:1023E000FEE7FEE7FEE7FEE770477047704708B577
:1023F000FDF7B8FF08BD08B5002000F0A5F808BD3E
:1024000070B588B01B4BDA6C42F00102DA64DA6C0A
:1024100002F001020092009ADA6C42F00102DA64E2
:10242000DA6C02F001020192019ADA6D42F00102C7
:10243000DA65DB6D03F001030293029B042303932F
:10244000022404940694012305930C2607960DEBB1
:10245000060529464FF09040FEF748F808230393FD
:102460000494079629464FF09040FEF73FF808B0D5
:1024700070BD00BF0010024030B587B00F4BDA6C62
:1024800042F00102DA64DB6C03F001030093009B6D
:102490002025019501230293002403940323049330
:1024A00001A94FF09040FEF721F8224629464FF04F
:1024B0009040FEF705F9204607B030BD00100240FD
:1024C00010B586B01B4BDA6C42F00402DA64DB6CA8
:1024D00003F004030093009B4FF400530193022385
:1024E0000393049341B90023029301A91248FDF715
:1024F000FDFF002006B010BD04464FF48813029380
:1025000001A90D48FDF7F2FF0C4B03EBC4040C4985
:102510002046FDF7D1FF0B4A00212046FDF7C4FFFE
:1025200000220F212820FDF797FF2820FDF7A4FFA8
:10253000DFE700BF00100240000800482001002033
:102540000D0000065F25000808B5034B03EBC00033
:10255000FDF7B8FF08BD00BF20010020704708B597
:102560000020FFF7FBFF08BD08B50A4A02600A68B1
:1025700042600C2242614A8902614A6882600A898B
:10258000C2608A8982614FF40042C261FFF7F4FEA3
:1025900008BD00BF0080004001280ED838B50D46A8
:1025A0009423094C03FB00442046FFF729FF2946EA
:1025B0002046FFF7D9FF18B938BD6FF0010070470A
:1025C0006FF00300F8E700BF8C00002010B582B068
:1025D0000190084B18784FF47A73012201A94FF04B
:1025E000940C054C0CFB0040FFF7F8FD019802B07D
:1025F00010BD00BF880000208C00002070B50C4684
:102600001646002506E0AFF30080214601F8010BD5
:1026100001350C46B542F6DB304670BD70B50C4650
:102620001646002504E014F8010BFFF7CFFF013533
:10263000B542F8DB304670BD4FF0FF3070474FF4C5
:1026400000534B6000207047012070470020704706
:1026500010B503460C4A0D490D48006840B10C48BE
:1026600000680344521A934206D8094A136010BD09
:102670000748084C0460F2E700F00AFB0C230360F3
:102680004FF0FF30F3E700BF00000220000400001D
:1026900028010020E0020020034AD2F8883043F4E9
:1026A0007003C2F88830704700ED00E084B0134B2F
:1026B000DA6C42F00402DA64DA6C02F0040200928E
:1026C000009ADA6C42F02002DA64DA6C02F020023E
:1026D0000192019ADA6C42F00102DA64DA6C02F0DB
:1026E00001020292029ADA6C42F00202DA64DB6CB6
:1026F00003F002030393039B04B0704700100240F1
:1027000072B6FEE708B51148114B0360114B4360E8
:10271000002383600122C260036143618361C3615E
:102720000362FEF7A2F950B900210848FEF7AAFBA0
:1027300038B900210548FEF7D2FB20B908BDFFF7E4
:10274000DFFFFFF7DDFFFFF7DBFF00BF2C010020FD
:1027500000540040C285B24010B594B006AC382297
:102760000021204600F046FA0020019002900390DC
:1027700004900590FEF740FC022306934FF480720C
:10278000099240220A920D930E9304220F92552231
:1027900010921193129313932046FEF7E7FC78B939
:1027A0000F230193032302930023039304930593C0
:1027B00004210DEB0100FEF78FFF18B914B010BD16
:1027C000FFF79EFFFFF79CFF2DE9F04391B0FDF767
:1027D000B9FDFFF7C1FFFFF769FFFFF793FF002087
:1027E000FFF74AFE01210020FFF76AFE5A494FF425
:1027F000E1330B6000204860088148818881FFF741
:10280000CBFE08B1FFF77CFF544B93E8070010ACF8
:1028100004E907000AAC03F10C0207CA84E80700C8
:1028200006AC18330FCB07C4238000238DF8153076
:1028300001248DF8144003238DF8133004238DF800
:10284000123007238DF8113009238DF81030BDF8B0
:102850002680434D4FF4FA760296019405AF009717
:1028600002234246D4212846FEF763F902960194DA
:102870000DF11109CDF8009002231022D421284631
:10288000FEF757F902960194CDF800900223112229
:10289000D4212846FEF74DF90296019404AB00932B
:1028A00002231622D4212846FEF743F9029601940A
:1028B0000DF11303009302231222D4212846FEF7C0
:1028C00038F9029601940DF1120300930223424657
:1028D000D4212846FEF72DF9029601940097022391
:1028E0001722D4212846FEF724F9029601940DF10F
:1028F0001503009302231A46D4212846FEF719F93E
:10290000174C4FF47A760296012501950DF11603C6
:10291000009302232222D5212046FEF7DDF90296FC
:1029200001950DF11703009302231E22D5212046A5
:10293000FEF7D2F99DF817100A4800F005F99DF846
:102940001610094800F000F900238DF817304FF4F5
:10295000FA70FDF719FDD3E780010020243B000841
:102960002C0100207C3B0008903B00080D48854668
:10297000FFF792FE0C480D490D4A002302E0D4589F
:10298000C4500433C4188C42F9D30A4A0A4C0023B9
:1029900001E013600432A242FBD300F07FF9FFF79D
:1029A00013FFFEE700000220000000206800002066
:1029B000E43B000868000020DC020020FEE7000085
:1029C000002310B50446C0E90033C0E90433836036
:1029D00081814366C2818361194608225C3000F020
:1029E00009F90D4B63620D4BA3620D4BE3620D4B76
:1029F00023630D4B24629C4206D003F1680294428B
:102A000002D0D0339C4205D104F15800BDE81040FB
:102A100000F068B910BD00BF6D2B00088F2B0008B7
:102A2000C72B0008ED2B000890010020024A034943
:102A3000034800F06BB800BF0C000020813500088F
:102A40001C00002041680C4B994210B5044601D08F
:102A500000F096FDA168094B994202D0204600F093
:102A60008FFDE168064B994204D02046BDE8104036
:102A700000F086BD10BD00BF90010020F8010020CD
:102A8000600200200C4B0D4A0D4810B504211A605D
:102A90000022FFF795FF0A4B01221C46092103F192
:102AA0006800FFF78DFF04F1D0000222BDE810405E
:102AB0001221FFF785BF00BFC80200202D2A0008A1
:102AC00090010020014800F00EB900BFD1020020A3
:102AD000014800F009B900BFD102002010B504463A
:102AE000FFF7F0FF236A1BB1BDE81040FFF7F0BF0E
:102AF000044B2362044B1B68002BF5D1FFF7C2FF88
:102B0000F2E700BF452A0008C80200202DE9F8437B
:102B10000746884614460026D4E90195B9F1010913
:102B200005D52468002CF7D13046BDE8F883AB8981
:102B3000012B07D9B5F90E30013303D029463846A9
:102B4000C04706436835E9E70FB407B5064904AB4B
:102B5000086853F8042B8168019300F0E9F903B089
:102B60005DF804EB04B070471800002010B50C4667
:102B7000B1F90E1000F068F80028ABBF636DA389AF
:102B80001B1823F48053ACBF6365A38110BD2DE9EE
:102B9000F0411F468B89DB0505460C46164605D5D8
:102BA000B1F90E100223002200F03CF8A389B4F919
:102BB0000E1023F48053A38132463B462846BDE8DD
:102BC000F04100F053B810B50C46B1F90E1000F00A
:102BD00029F8B4F90C30421C0BBF23F4805343F4A2
:102BE0008053A381A38118BF606510BDB1F90E1099
:102BF00000F008B802440346934200D1704703F83E
:102C0000011BF9E738B5064D0023044608462B6042
:102C1000FFF712FD431C02D12B6803B1236038BDBE
:102C2000CC02002038B5074D044608461146002264
:102C30002A601A46FFF70AFD431C02D12B6803B134
:102C4000236038BDCC02002038B5074D0446084645
:102C5000114600222A601A46FFF7D0FC431C02D11D
:102C60002B6803B1236038BDCC02002038B5074D76
:102C700004460846114600222A601A46FFF7CEFC99
:102C8000431C02D12B6803B1236038BDCC02002065
:102C9000014B1868704700BF1800002070B50D4B3D
:102CA0000D4D5B1B9C100026A64209D100F02EFFA3
:102CB0000A4D0B4B5B1B9C100026A64205D170BD34
:102CC00055F8043B98470136EEE755F8043B984722
:102CD0000136F2E7DC3B0008DC3B0008DC3B000887
:102CE000E03B0008704770477047000038B5054664
:102CF000002941D051F8043C0C1F002BB8BFE41848
:102D000000F0E0F81D4A136833B963601460284688
:102D1000BDE8384000F0DCB8A34208D9206821188B
:102D20008B4201BF19685B6809182160EDE71A46FC
:102D30005B680BB1A342FAD911685018A0420BD1BD
:102D400020680144501883421160E0D118685B6824
:102D5000536008441060DAE702D90C232B60D6E7F1
:102D6000206821188B4204BF19685B68636004BF48
:102D7000091821605460CAE738BD00BFD80200209E
:102D800070B50F4E0C463168054611B900F0B2FC23
:102D900030602146284600F0ADFC431C03D14FF0C3
:102DA000FF34204670BDC41C24F00304A042F8D0B8
:102DB000211A284600F09EFC0130F2D1EFE700BF57
:102DC000D40200202DE9F843CD1C25F00305083579
:102DD0000C2D38BF0C25002D064601DBA94204D975
:102DE0000C2333600020BDE8F883DFF8D48000F0C6
:102DF00069F8D8F800301C4644BB29463046FFF736
:102E0000BFFF431C044658D1D8F800402746002F86
:102E100043D1002C4BD023683946304604EB0309DC
:102E200000F068FC814542D121686D1A2946304680
:102E3000FFF7A6FF01303AD023682B442360D8F86F
:102E400000305A6862BBC8F800700FE02268521B5D
:102E500020D40B2A17D96119A342256018BF5960E5
:102E6000636808BFC8F8001062514B60304600F03C
:102E70002FF804F10B00231D20F00700C21A1CBF1D
:102E80001B1AA350AFE76268A3420CBFC8F800202A
:102E90005A60EBE723466468AEE73C467F68B6E7D6
:102EA0001A465B68A342FBD100235360DEE70C2384
:102EB0003360304600F00CF894E70560D6E700BFB9
:102EC000D80200200148FFF70EBF00BFD00200204B
:102ED0000148FFF709BF00BFD00200209368013B03
:102EE000002B10B4936008DA9469A34201DB0A292D
:102EF00003D15DF8044B00F06BBB1368581C1060E5
:102F0000197008465DF8044B7047F8B506460F4641
:102F10001446D518AC4201D1002007E014F8011B7B
:102F20003A463046FFF7DAFF431CF3D1F8BD000004
:102F30002DE9F04F0D469DB014469846064618B14F
:102F4000036A0BB9FFF7CAFD6B6ED90705D4AB89CD
:102F50009A0502D4A86DFFF7C6FEAB891B0701D501
:102F60002B699BB92946304600F070FB70B16B6E3F
:102F7000DC0704D54FF0FF301DB0BDE8F08FAB8902
:102F80009805F7D4A86DFFF7AFFEF3E70023099388
:102F900020238DF82930CDF80C803023DFF8AC8168
:102FA0008DF82A304FF0010923469A4613F8012B79
:102FB0000AB1252AF9D1BAEB040B0BD05B462246A5
:102FC00029463046FFF7A1FF013000F0A780099A9B
:102FD0005A4409929AF80030002B00F09F80002399
:102FE0004FF0FF32CDE905230AF1010A049307935C
:102FF0008DF853301A935446052214F8011B534898
:10300000FDF7EEF8049AD8B9D10644BF20238DF815
:103010005330130744BF2B238DF853309AF80030F8
:103020002A2B15D0079A544600204FF00A0C21464F
:1030300011F8013B303B092B4BD9B0B1079214E09A
:10304000A0EB080309FA03F313430493A246D2E763
:10305000039B191D1B680391002BBBBF5B4242F011
:10306000020207930793B8BF049223782E2B0AD14C
:1030700063782A2B32D1039B1A1D1B68039243EA03
:10308000E37302340593DFF8D4A02178032250467D
:10309000FDF7A6F838B1049BA0EB0A00402282405D
:1030A00013430134049314F8011B29488DF82810A8
:1030B0000622FDF795F800283FD0264B1BBB039B4B
:1030C000073323F0070308330393099B3B44099319
:1030D0006AE70CFB02320C460120A8E7002301340A
:1030E000059319464FF00A0C204610F8012B303A90
:1030F000092A03D9002BC6D00591C4E70CFB012196
:1031000004460123F0E703AB00932A46124B04A9BF
:103110003046AFF300800746781CD6D16B6ED907D6
:1031200005D4AB899A0502D4A86DFFF7DDFDAB8904
:103130005B063FF51FAF09981EE703AB00932A46D5
:10314000054B04A9304600F079F8E4E7A13B0008FC
:10315000AB3B0008000000000B2F0008A73B000855
:103160002DE9F047164698468A680B69DDF82090ED
:103170009342B8BF1346336091F8432007460C468C
:103180000AB1013333602368990642BF33680233C2
:103190003360256815F0060506D104F1190AE368C5
:1031A00032689B1AAB4226DC94F843302268003B1D
:1031B00018BF012392062BD404F14302414638463E
:1031C000C84701301ED02368226903F00603042B90
:1031D00002BFE5683368ED1AA3680CBF25EAE57500
:1031E00000259342C4BF9B1AED1800261A34B5423D
:1031F0001AD1002008E00123524641463846C8470C
:10320000013003D14FF0FF30BDE8F0870135C6E74C
:10321000E1185A1C302081F84300224494F84510EC
:1032200082F843100233C7E701232246414638465D
:10323000C8470130E6D00136D9E700002DE9FF4745
:103240000F7E0C9E782F914680460C469A4601F1DF
:10325000430207D8622F0AD8002F00F0D280582FDF
:1032600000F0B78004F1420684F842703AE0A7F11A
:103270006303152BF6D801A151F823F0D5320008CD
:10328000E93200086532000865320008653200083E
:1032900065320008E932000865320008653200082E
:1032A0006532000865320008E9330008133300086E
:1032B0009F33000865320008653200080B340008AF
:1032C00065320008133300086532000865320008D3
:1032D000A733000833681A1D1B68326004F14206E8
:1032E00084F8423001239DE033682068191D316065
:1032F000060601D51D6803E04506FBD5B3F900506D
:10330000002D03DA2D236D4284F8433059480A23F7
:1033100010E021683368080653F8045B02D44906BC
:1033200048BFADB26F2F5348336059D108230021F5
:1033300084F843106668A660002E05DB21682E43E2
:1033400021F0040121604DD01646B5FBF3F103FBDB
:103350001157C75D06F8017D2F46BB420D46F4D9D3
:10336000082B0BD12368DF0708D5236961689942D0
:10337000DEBF302306F8013C06F1FF36921B2261C6
:10338000CDF800A04B4603AA21464046FFF7E8FED1
:1033900001304CD14FF0FF3004B0BDE8F087236816
:1033A00043F0200323603448782784F8457023686D
:1033B00031681F0651F8045B02D45F0648BFADB206
:1033C0003160D90744BF43F0200323601DB11023AF
:1033D000ADE72848E9E7236823F020032360F6E7F8
:1033E0000A23A4E71646BBE7336825686169181D00
:1033F00030602E061B6801D5196002E06806FBD517
:103400001980002323611646BAE733681A1D32601B
:103410001E68626800213046FCF7E2FE08B1801B9E
:10342000606063682361002384F84330A8E7236960
:10343000324649464046D0470130ABD023689B070F
:1034400013D4E068039B9842B8BF1846A4E7012351
:10345000324649464046D04701309BD00135E368AB
:1034600003995B1AAB42F2DCEBE7002504F1190685
:10347000F5E700BFB23B0008C33B0008B1F90C20E0
:103480002DE9F041160705460C4651D44B68002B38
:1034900002DC0B6C002B49DDE66A002E46D00023CF
:1034A00012F480522F682B6031D0626DA3895907C6
:1034B00005D56368D21A636B0BB1236CD21A002353
:1034C000E66A216A2846B047421CB4F90C3006D19E
:1034D00029681D2946D8294ACA40D60742D5002264
:1034E0006260D9042269226004D5421C01D12B6894
:1034F00003B96065616B2F60C1B104F14403994267
:1035000002D02846FFF7F2FB002363630EE0216A36
:1035100001232846B0470246501CC7D12B68002B18
:10352000C4D01D2B01D0162B1AD12F6000201EE015
:103530000F69002FFAD093070E6808BF4B690F6020
:1035400018BF0023A6EB07088B60B8F1000FEDDD74
:10355000216AA66A43463A462846B047002808DC56
:10356000B4F90C3043F04003A3814FF0FF30BDE8C5
:10357000F0810744A8EB0008E7E700BF0100402006
:1035800038B50B6905460C4613B90025284638BDE9
:1035900018B1036A0BB9FFF7A1FAB4F90C30002B8C
:1035A000F3D0626ED00704D4990502D4A06DFFF762
:1035B0009AFB28462146FFF761FF636EDA0705464E
:1035C000E4D4A3899B05E1D4A06DFFF78DFBDDE773
:1035D000F8B50E461446054618B1036A0BB9FFF755
:1035E0007DFAA369A360A3891A0701D5236943B9AA
:1035F0002146284600F02AF818B14FF0FF37384628
:10360000F8BD23682269981A6369F6B28342374687
:1036100005DC21462846FFF7B3FF0028EDD1A3685B
:10362000013BA36023685A1C22601E706269431C20
:103630009A4204D0A389DB07E1D50A2EDFD12146C7
:103640002846FFF79DFF0028D9D0D6E738B5284B8C
:10365000054618680C4618B1036A0BB9FFF73EFA25
:10366000B4F90C301A0721D4D80607D409222A60ED
:1036700043F04003A3814FF0FF3030E0590712D5EB
:10368000616B41B104F14403994202D02846FFF72F
:103690002DFB002363630022B4F90C3062602269C1
:1036A000226023F0240343F00803A38122693AB97E
:1036B0009A0501D5180603D52146284600F04EF894
:1036C000B4F90C3013F001020AD00022A260626942
:1036D0005242A261226942B913F08000C8D138BDBC
:1036E000990758BF6269A260F4E70020F7E700BFBE
:1036F0001800002038B5064D0023044608462B600C
:10370000FEF7A6FF431C02D12B6803B1236038BD2E
:10371000CC02002070B50C46B1F90E10002996B00D
:1037200015461E460ADAA18911F0800113D14FF423
:103730008062002031602A6016B070BD6A4600F0D9
:1037400047F80028EFDB019901F47041A1F500531F
:1037500059425941EBE700214022EAE78B8973B5D2
:103760009E0705460C4607D504F1470323602361F5
:103770000123636102B070BD01AB6A46FFF7CAFF67
:10378000009E28463146FFF71DFBB4F90C3038B9CE
:103790009A05EFD423F0030343F00203A381E3E788
:1037A00043F08003A381019B2060C4E90406002B41
:1037B000E0D0B4F90E10284600F01CF80028D9D04B
:1037C000A38923F0030343F00103A381D2E70000A0
:1037D00038B5074D00230446084611462B60FEF716
:1037E0002EFF431C02D12B6803B1236038BD00BFFC
:1037F000CC02002038B5064D0023044608462B6055
:10380000FEF722FF431C02D12B6803B1236038BDB1
:10381000CC0200202DE9F047089D0F4604468C4657
:10382000002B48D18A42164661D9B2FA82F34BB1D5
:10383000C3F1200201FA03FC20FA02F29E4042EAA0
:103840000C0C9C404FEA164EB7B2BCFBFEF1220CAA
:103850000EFB11CC42EA0C4201FB07F0904209D961
:10386000B21801F1FF3C80F0EE80904240F2EB8014
:1038700002393244121AA4B2B2FBFEF00EFB10223F
:1038800044EA024400FB07F7A74209D9341900F1C2
:10389000FF3280F0DA80A74240F2D7803444023809
:1038A00040EA0140E41B00211DB1DC400023C5E9D2
:1038B0000043BDE8F0878B4206D90DB1C5E9000190
:1038C00000210846BDE8F087B3FA83F1002948D10A
:1038D000BB4202D3824200F20781841A67EB0302E3
:1038E00001209446002DE4D0C5E9004CE1E7002A10
:1038F00000F09280B2FA82F3002B40F0A8808A1A7E
:103900004FEA164E1FFA86FC0121200CB2FBFEF78F
:103910000EFB172240EA02420CFB07F0904207D947
:10392000B21807F1FF3802D2904200F2E280474617
:10393000121AA4B2B2FBFEF00EFB102244EA0244BB
:103940000CFB00FCA44507D9341900F1FF3202D268
:10395000A44500F2CB801046A4EB0C0440EA0740DB
:10396000A2E7C1F120068B4022FA06FC4CEA030CC8
:1039700007FA01F420FA06F3F7404FEA1C49234303
:1039800000FA01F81FFA8CFEB7FBF9F01C0C09FBDA
:10399000107744EA074400FB0EF7A74202FA01F24F
:1039A0000AD91CEB040400F1FF3A80F09B80A74287
:1039B00040F2988002386444E41B9FB2B4FBF9F3F0
:1039C00009FB134447EA044403FB0EFEA64509D94C
:1039D0001CEB040403F1FF3780F08280A6457FD9F9
:1039E000023B644443EA0040A4EB0E04A0FB02E760
:1039F000BC427346B94663D360D05DB1B8EB0302F5
:103A000064EB090404FA06F622FA01F31E43CC40E3
:103A1000C5E9006400214CE76208480842EAC17128
:103A20000B0C43EA00438AB242EA0342B3FBF6F1CD
:103A3000E407B4463746B6461F23B0FBF6F0D21B68
:103A400041EA004161E7614614E7104628E7C3F107
:103A5000200120FA01F29E4027FA01F19F403A43EB
:103A60004FEA164E1FFA86FCB1FBFEF70EFB17104D
:103A7000110C41EA004107FB0CF8884504FA03F4F5
:103A80003AD9711807F1FF3001D288451FD8A1EB50
:103A90000801B1FBFEF808FB0CF70EFB181192B2FF
:103AA00042EA0142BA422FD2B21808F1FF31C6D21F
:103AB000BA42C4D2A8F102013244C0E7F0459CD218
:103AC000BEEB020367EB0C070138B94695E7A6EB9E
:103AD00008084144B81EB1FBFEF808FB0CF7DCE710
:103AE0003B467FE7504667E70846FBE6344402382A
:103AF00032E7023F32441BE7A1EB08013846B1FB35
:103B0000FEF808FB0CF7C8E7414698E7F8B500BF98
:103B1000F8BC08BC9E467047F8B500BFF8BC08BCAE
:043B20009E46704706
:103B24002200230024002500260027002800290065
:103B34002A002B002C002D00100011001500160087
:103B44001700020012000000010002000400060039
:103B540008000A000C001000200040008000000152
:103B64000000000001020304000000000000000047
:103B740001020304060708095468652076616C7520
:103B8400652069732025780A0D000000746865209B
:103B94006779726F2069732025780A0D00232D3010
:103BA4002B2000686C4C0065666745464700303141
:103BB4003233343536373839414243444546003090
:103BC40031323334353637383961626364656600BF
:083BD4000CC6FF7F0100000098
:043BDC00D902000802
:043BE000B502000822
:103BE40001000000100000000024F40000000000A8
:103BF40003000000900100201C00002000000000D1
:103C040090010020F8010020600200200000000064
:103C140000000000000000000000000000000000A0
:103C24000000000000000000000000000000000090
:103C34000000000000000000000000000000000080
:083C4400000000000000000078
:040000050800296D59
:00000001FF
